{
  "_format": "hh-sol-artifact-1",
  "contractName": "AMMRouter",
  "sourceName": "src/backend/contracts/AMMRouter.sol",
  "abi": [
    {
      "inputs": [
        {
          "internalType": "address",
          "name": "_factory",
          "type": "address"
        }
      ],
      "stateMutability": "nonpayable",
      "type": "constructor"
    },
    {
      "inputs": [
        {
          "internalType": "address",
          "name": "tokenA",
          "type": "address"
        },
        {
          "internalType": "address",
          "name": "tokenB",
          "type": "address"
        },
        {
          "internalType": "uint256",
          "name": "amountADesired",
          "type": "uint256"
        },
        {
          "internalType": "uint256",
          "name": "amountBDesired",
          "type": "uint256"
        },
        {
          "internalType": "uint256",
          "name": "amountAMin",
          "type": "uint256"
        },
        {
          "internalType": "uint256",
          "name": "amountBMin",
          "type": "uint256"
        },
        {
          "internalType": "address",
          "name": "to",
          "type": "address"
        },
        {
          "internalType": "uint256",
          "name": "deadline",
          "type": "uint256"
        }
      ],
      "name": "addLiquidity",
      "outputs": [
        {
          "internalType": "uint256",
          "name": "amountA",
          "type": "uint256"
        },
        {
          "internalType": "uint256",
          "name": "amountB",
          "type": "uint256"
        },
        {
          "internalType": "uint256",
          "name": "liquidity",
          "type": "uint256"
        }
      ],
      "stateMutability": "nonpayable",
      "type": "function"
    },
    {
      "inputs": [],
      "name": "factory",
      "outputs": [
        {
          "internalType": "address",
          "name": "",
          "type": "address"
        }
      ],
      "stateMutability": "view",
      "type": "function"
    },
    {
      "inputs": [
        {
          "internalType": "uint256",
          "name": "amountOut",
          "type": "uint256"
        },
        {
          "internalType": "address[]",
          "name": "path",
          "type": "address[]"
        }
      ],
      "name": "getAmountsIn",
      "outputs": [
        {
          "internalType": "uint256[]",
          "name": "amounts",
          "type": "uint256[]"
        }
      ],
      "stateMutability": "view",
      "type": "function"
    },
    {
      "inputs": [
        {
          "internalType": "uint256",
          "name": "amountIn",
          "type": "uint256"
        },
        {
          "internalType": "address[]",
          "name": "path",
          "type": "address[]"
        }
      ],
      "name": "getAmountsOut",
      "outputs": [
        {
          "internalType": "uint256[]",
          "name": "amounts",
          "type": "uint256[]"
        }
      ],
      "stateMutability": "view",
      "type": "function"
    },
    {
      "inputs": [
        {
          "internalType": "address",
          "name": "tokenA",
          "type": "address"
        },
        {
          "internalType": "address",
          "name": "tokenB",
          "type": "address"
        }
      ],
      "name": "getReserves",
      "outputs": [
        {
          "internalType": "uint256",
          "name": "reserveA",
          "type": "uint256"
        },
        {
          "internalType": "uint256",
          "name": "reserveB",
          "type": "uint256"
        },
        {
          "internalType": "address",
          "name": "pair",
          "type": "address"
        }
      ],
      "stateMutability": "view",
      "type": "function"
    },
    {
      "inputs": [
        {
          "internalType": "address",
          "name": "tokenA",
          "type": "address"
        },
        {
          "internalType": "address",
          "name": "tokenB",
          "type": "address"
        },
        {
          "internalType": "uint256",
          "name": "liquidity",
          "type": "uint256"
        },
        {
          "internalType": "uint256",
          "name": "amountAMin",
          "type": "uint256"
        },
        {
          "internalType": "uint256",
          "name": "amountBMin",
          "type": "uint256"
        },
        {
          "internalType": "address",
          "name": "to",
          "type": "address"
        },
        {
          "internalType": "uint256",
          "name": "deadline",
          "type": "uint256"
        }
      ],
      "name": "removeLiquidity",
      "outputs": [
        {
          "internalType": "uint256",
          "name": "amountA",
          "type": "uint256"
        },
        {
          "internalType": "uint256",
          "name": "amountB",
          "type": "uint256"
        }
      ],
      "stateMutability": "nonpayable",
      "type": "function"
    },
    {
      "inputs": [
        {
          "internalType": "uint256",
          "name": "amountIn",
          "type": "uint256"
        },
        {
          "internalType": "uint256",
          "name": "amountOutMin",
          "type": "uint256"
        },
        {
          "internalType": "address[]",
          "name": "path",
          "type": "address[]"
        },
        {
          "internalType": "address",
          "name": "to",
          "type": "address"
        },
        {
          "internalType": "uint256",
          "name": "deadline",
          "type": "uint256"
        }
      ],
      "name": "swapExactTokensForTokens",
      "outputs": [
        {
          "internalType": "uint256[]",
          "name": "amounts",
          "type": "uint256[]"
        }
      ],
      "stateMutability": "nonpayable",
      "type": "function"
    },
    {
      "inputs": [
        {
          "internalType": "uint256",
          "name": "amountOut",
          "type": "uint256"
        },
        {
          "internalType": "uint256",
          "name": "amountInMax",
          "type": "uint256"
        },
        {
          "internalType": "address[]",
          "name": "path",
          "type": "address[]"
        },
        {
          "internalType": "address",
          "name": "to",
          "type": "address"
        },
        {
          "internalType": "uint256",
          "name": "deadline",
          "type": "uint256"
        }
      ],
      "name": "swapTokensForExactTokens",
      "outputs": [
        {
          "internalType": "uint256[]",
          "name": "amounts",
          "type": "uint256[]"
        }
      ],
      "stateMutability": "nonpayable",
      "type": "function"
    }
  ],
  "bytecode": "0x60a06040523480156200001157600080fd5b5060405162002bf538038062002bf5833981810160405281019062000037919062000156565b8073ffffffffffffffffffffffffffffffffffffffff1660808173ffffffffffffffffffffffffffffffffffffffff168152505060805173ffffffffffffffffffffffffffffffffffffffff16635855a25a6040518163ffffffff1660e01b8152600401602060405180830381865afa158015620000b9573d6000803e3d6000fd5b505050506040513d601f19601f82011682018060405250810190620000df9190620001c3565b60008190555050620001f5565b600080fd5b600073ffffffffffffffffffffffffffffffffffffffff82169050919050565b60006200011e82620000f1565b9050919050565b620001308162000111565b81146200013c57600080fd5b50565b600081519050620001508162000125565b92915050565b6000602082840312156200016f576200016e620000ec565b5b60006200017f848285016200013f565b91505092915050565b6000819050919050565b6200019d8162000188565b8114620001a957600080fd5b50565b600081519050620001bd8162000192565b92915050565b600060208284031215620001dc57620001db620000ec565b5b6000620001ec84828501620001ac565b91505092915050565b6080516129ac62000249600039600081816104c9015281816106dd0152818161081c015281816109c201528181610b8001528181610cd401528181610d8b0152818161138301526113da01526129ac6000f3fe608060405234801561001057600080fd5b50600436106100885760003560e01c8063c45a01551161005b578063c45a01551461014e578063d06ca61f1461016c578063d52bb6f41461019c578063e8e33700146101ce57610088565b80631f00ca741461008d57806338ed1739146100bd5780638803dbee146100ed578063baa2abde1461011d575b600080fd5b6100a760048036038101906100a29190611955565b610200565b6040516100b49190611a6f565b60405180910390f35b6100d760048036038101906100d29190611aec565b61039a565b6040516100e49190611a6f565b60405180910390f35b61010760048036038101906101029190611aec565b6105ba565b6040516101149190611a6f565b60405180910390f35b61013760048036038101906101329190611b86565b6107ce565b604051610145929190611c37565b60405180910390f35b6101566109c0565b6040516101639190611c6f565b60405180910390f35b61018660048036038101906101819190611955565b6109e4565b6040516101939190611a6f565b60405180910390f35b6101b660048036038101906101b19190611c8a565b610b68565b6040516101c593929190611cca565b60405180910390f35b6101e860048036038101906101e39190611d01565b610c71565b6040516101f793929190611db7565b60405180910390f35b6060600282511015610247576040517f08c379a000000000000000000000000000000000000000000000000000000000815260040161023e90611e4b565b60405180910390fd5b815167ffffffffffffffff811115610262576102616117b4565b5b6040519080825280602002602001820160405280156102905781602001602082028036833780820191505090505b5090508281600183516102a39190611e9a565b815181106102b4576102b3611ece565b5b6020026020010181815250506000600183516102d09190611e9a565b90505b600081111561039357600080610329856001856102f09190611e9a565b8151811061030157610300611ece565b5b602002602001015186858151811061031c5761031b611ece565b5b6020026020010151610b68565b509150915061035384848151811061034457610343611ece565b5b60200260200101518383610fe3565b846001856103619190611e9a565b8151811061037257610371611ece565b5b6020026020010181815250505050808061038b90611efd565b9150506102d3565b5092915050565b606081428110156103e0576040517f08c379a00000000000000000000000000000000000000000000000000000000081526004016103d790611f72565b60405180910390fd5b61042b88878780806020026020016040519081016040528093929190818152602001838360200280828437600081840152601f19601f820116905080830192505050505050506109e4565b915086826001845161043d9190611e9a565b8151811061044e5761044d611ece565b5b60200260200101511015610497576040517f08c379a000000000000000000000000000000000000000000000000000000000815260040161048e90611fde565b60405180910390fd5b610563868660008181106104ae576104ad611ece565b5b90506020020160208101906104c39190611ffe565b336105427f00000000000000000000000000000000000000000000000000000000000000008a8a60008181106104fc576104fb611ece565b5b90506020020160208101906105119190611ffe565b8b8b600181811061052557610524611ece565b5b905060200201602081019061053a9190611ffe565b6000546110d3565b8560008151811061055657610555611ece565b5b6020026020010151611148565b6105af82878780806020026020016040519081016040528093929190818152602001838360200280828437600081840152601f19601f8201169050808301925050505050505086611281565b509695505050505050565b60608142811015610600576040517f08c379a00000000000000000000000000000000000000000000000000000000081526004016105f790611f72565b60405180910390fd5b61064b88878780806020026020016040519081016040528093929190818152602001838360200280828437600081840152601f19601f82011690508083019250505050505050610200565b9150868260008151811061066257610661611ece565b5b602002602001015111156106ab576040517f08c379a00000000000000000000000000000000000000000000000000000000081526004016106a290612077565b60405180910390fd5b610777868660008181106106c2576106c1611ece565b5b90506020020160208101906106d79190611ffe565b336107567f00000000000000000000000000000000000000000000000000000000000000008a8a60008181106107105761070f611ece565b5b90506020020160208101906107259190611ffe565b8b8b600181811061073957610738611ece565b5b905060200201602081019061074e9190611ffe565b6000546110d3565b8560008151811061076a57610769611ece565b5b6020026020010151611148565b6107c382878780806020026020016040519081016040528093929190818152602001838360200280828437600081840152601f19601f8201169050808301925050505050505086611281565b509695505050505050565b6000808242811015610815576040517f08c379a000000000000000000000000000000000000000000000000000000000815260040161080c90611f72565b60405180910390fd5b60006108457f00000000000000000000000000000000000000000000000000000000000000008c8c6000546110d3565b90506108538133838c611148565b6000808273ffffffffffffffffffffffffffffffffffffffff166389afcb44896040518263ffffffff1660e01b815260040161088f9190611c6f565b60408051808303816000875af11580156108ad573d6000803e3d6000fd5b505050506040513d601f19601f820116820180604052508101906108d191906120ac565b9150915060006108e18e8e61148b565b5090508073ffffffffffffffffffffffffffffffffffffffff168e73ffffffffffffffffffffffffffffffffffffffff161461091e578183610921565b82825b80975081985050508a87101561096c576040517f08c379a000000000000000000000000000000000000000000000000000000000815260040161096390612138565b60405180910390fd5b898610156109af576040517f08c379a00000000000000000000000000000000000000000000000000000000081526004016109a6906121a4565b60405180910390fd5b505050505097509795505050505050565b7f000000000000000000000000000000000000000000000000000000000000000081565b6060600282511015610a2b576040517f08c379a0000000000000000000000000000000000000000000000000000000008152600401610a2290611e4b565b60405180910390fd5b815167ffffffffffffffff811115610a4657610a456117b4565b5b604051908082528060200260200182016040528015610a745781602001602082028036833780820191505090505b5090508281600081518110610a8c57610a8b611ece565b5b60200260200101818152505060005b60018351610aa99190611e9a565b811015610b6157600080610afd858481518110610ac957610ac8611ece565b5b602002602001015186600186610adf91906121c4565b81518110610af057610aef611ece565b5b6020026020010151610b68565b5091509150610b27848481518110610b1857610b17611ece565b5b602002602001015183836115b7565b84600185610b3591906121c4565b81518110610b4657610b45611ece565b5b60200260200101818152505050508080600101915050610a9b565b5092915050565b600080600080610b78868661148b565b509050610ba97f000000000000000000000000000000000000000000000000000000000000000087876000546110d3565b91506000808373ffffffffffffffffffffffffffffffffffffffff16630902f1ac6040518163ffffffff1660e01b8152600401606060405180830381865afa158015610bf9573d6000803e3d6000fd5b505050506040513d601f19601f82011682018060405250810190610c1d91906121f8565b50915091508273ffffffffffffffffffffffffffffffffffffffff168873ffffffffffffffffffffffffffffffffffffffff1614610c5c578082610c5f565b81815b80965081975050505050509250925092565b60008060008342811015610cba576040517f08c379a0000000000000000000000000000000000000000000000000000000008152600401610cb190611f72565b60405180910390fd5b600073ffffffffffffffffffffffffffffffffffffffff167f000000000000000000000000000000000000000000000000000000000000000073ffffffffffffffffffffffffffffffffffffffff1663e6a439058e8e6040518363ffffffff1660e01b8152600401610d2d92919061224b565b602060405180830381865afa158015610d4a573d6000803e3d6000fd5b505050506040513d601f19601f82011682018060405250810190610d6e9190612289565b73ffffffffffffffffffffffffffffffffffffffff1603610e29577f000000000000000000000000000000000000000000000000000000000000000073ffffffffffffffffffffffffffffffffffffffff1663c9c653968d8d6040518363ffffffff1660e01b8152600401610de492919061224b565b6020604051808303816000875af1158015610e03573d6000803e3d6000fd5b505050506040513d601f19601f82011682018060405250810190610e279190612289565b505b6000806000610e388f8f610b68565b925092509250600083148015610e4e5750600082145b15610e62578c8c8097508198505050610f3b565b6000610e6f8e85856116a1565b90508c8111610eca578a811015610ebb576040517f08c379a0000000000000000000000000000000000000000000000000000000008152600401610eb290612302565b60405180910390fd5b8d818098508199505050610f39565b6000610ed78e85876116a1565b90508e811115610eea57610ee9612322565b5b8c811015610f2d576040517f08c379a0000000000000000000000000000000000000000000000000000000008152600401610f249061239d565b60405180910390fd5b808e809950819a505050505b505b610f478f33838a611148565b610f538e338389611148565b8073ffffffffffffffffffffffffffffffffffffffff16636a6278428a6040518263ffffffff1660e01b8152600401610f8c9190611c6f565b6020604051808303816000875af1158015610fab573d6000803e3d6000fd5b505050506040513d601f19601f82011682018060405250810190610fcf91906123bd565b945050505050985098509895505050505050565b6000808411611027576040517f08c379a000000000000000000000000000000000000000000000000000000000815260040161101e90611fde565b60405180910390fd5b6000831180156110375750600082115b611076576040517f08c379a000000000000000000000000000000000000000000000000000000000815260040161106d90612436565b60405180910390fd5b60006103e885856110879190612456565b6110919190612456565b905060006103e686856110a49190611e9a565b6110ae9190612456565b9050600181836110be91906124c7565b6110c891906121c4565b925050509392505050565b60008060006110e2868661148b565b915091508682826040516020016110fa929190612540565b6040516020818303038152906040528051906020012085604051602001611123939291906125ee565b6040516020818303038152906040528051906020012060001c92505050949350505050565b6000808573ffffffffffffffffffffffffffffffffffffffff166323b872dd86868660405160240161117c93929190612636565b6040516020818303038152906040529060e01b6020820180517bffffffffffffffffffffffffffffffffffffffffffffffffffffffff83818316178352505050506040516111ca91906126de565b6000604051808303816000865af19150503d8060008114611207576040519150601f19603f3d011682016040523d82523d6000602084013e61120c565b606091505b509150915081801561123a5750600081511480611239575080806020019051810190611238919061272d565b5b5b611279576040517f08c379a0000000000000000000000000000000000000000000000000000000008152600401611270906127a6565b60405180910390fd5b505050505050565b60005b600183516112929190611e9a565b811015611485576000808483815181106112af576112ae611ece565b5b6020026020010151856001856112c591906121c4565b815181106112d6576112d5611ece565b5b60200260200101519150915060006112ee838361148b565b50905060008760018661130191906121c4565b8151811061131257611311611ece565b5b602002602001015190506000808373ffffffffffffffffffffffffffffffffffffffff168673ffffffffffffffffffffffffffffffffffffffff161461135a5782600061135e565b6000835b91509150600060028a516113729190611e9a565b881061137e57886113d3565b6113d27f0000000000000000000000000000000000000000000000000000000000000000878c60028c6113b191906121c4565b815181106113c2576113c1611ece565b5b60200260200101516000546110d3565b5b90506114037f000000000000000000000000000000000000000000000000000000000000000088886000546110d3565b73ffffffffffffffffffffffffffffffffffffffff16636d9a640a8484846040518463ffffffff1660e01b815260040161143f93929190611cca565b600060405180830381600087803b15801561145957600080fd5b505af115801561146d573d6000803e3d6000fd5b50505050505050505050508080600101915050611284565b50505050565b6000808273ffffffffffffffffffffffffffffffffffffffff168473ffffffffffffffffffffffffffffffffffffffff16036114fc576040517f08c379a00000000000000000000000000000000000000000000000000000000081526004016114f390612812565b60405180910390fd5b8273ffffffffffffffffffffffffffffffffffffffff168473ffffffffffffffffffffffffffffffffffffffff1610611536578284611539565b83835b8092508193505050600073ffffffffffffffffffffffffffffffffffffffff168273ffffffffffffffffffffffffffffffffffffffff16036115b0576040517f08c379a00000000000000000000000000000000000000000000000000000000081526004016115a79061287e565b60405180910390fd5b9250929050565b60008084116115fb576040517f08c379a00000000000000000000000000000000000000000000000000000000081526004016115f2906128ea565b60405180910390fd5b60008311801561160b5750600082115b61164a576040517f08c379a000000000000000000000000000000000000000000000000000000000815260040161164190612436565b60405180910390fd5b60006103e68561165a9190612456565b90506000838261166a9190612456565b90506000826103e88761167d9190612456565b61168791906121c4565b9050808261169591906124c7565b93505050509392505050565b60008084116116e5576040517f08c379a00000000000000000000000000000000000000000000000000000000081526004016116dc90612956565b60405180910390fd5b6000831180156116f55750600082115b611734576040517f08c379a000000000000000000000000000000000000000000000000000000000815260040161172b90612436565b60405180910390fd5b8282856117419190612456565b61174b91906124c7565b90509392505050565b6000604051905090565b600080fd5b600080fd5b6000819050919050565b61177b81611768565b811461178657600080fd5b50565b60008135905061179881611772565b92915050565b600080fd5b6000601f19601f8301169050919050565b7f4e487b7100000000000000000000000000000000000000000000000000000000600052604160045260246000fd5b6117ec826117a3565b810181811067ffffffffffffffff8211171561180b5761180a6117b4565b5b80604052505050565b600061181e611754565b905061182a82826117e3565b919050565b600067ffffffffffffffff82111561184a576118496117b4565b5b602082029050602081019050919050565b600080fd5b600073ffffffffffffffffffffffffffffffffffffffff82169050919050565b600061188b82611860565b9050919050565b61189b81611880565b81146118a657600080fd5b50565b6000813590506118b881611892565b92915050565b60006118d16118cc8461182f565b611814565b905080838252602082019050602084028301858111156118f4576118f361185b565b5b835b8181101561191d578061190988826118a9565b8452602084019350506020810190506118f6565b5050509392505050565b600082601f83011261193c5761193b61179e565b5b813561194c8482602086016118be565b91505092915050565b6000806040838503121561196c5761196b61175e565b5b600061197a85828601611789565b925050602083013567ffffffffffffffff81111561199b5761199a611763565b5b6119a785828601611927565b9150509250929050565b600081519050919050565b600082825260208201905092915050565b6000819050602082019050919050565b6119e681611768565b82525050565b60006119f883836119dd565b60208301905092915050565b6000602082019050919050565b6000611a1c826119b1565b611a2681856119bc565b9350611a31836119cd565b8060005b83811015611a62578151611a4988826119ec565b9750611a5483611a04565b925050600181019050611a35565b5085935050505092915050565b60006020820190508181036000830152611a898184611a11565b905092915050565b600080fd5b60008083601f840112611aac57611aab61179e565b5b8235905067ffffffffffffffff811115611ac957611ac8611a91565b5b602083019150836020820283011115611ae557611ae461185b565b5b9250929050565b60008060008060008060a08789031215611b0957611b0861175e565b5b6000611b1789828a01611789565b9650506020611b2889828a01611789565b955050604087013567ffffffffffffffff811115611b4957611b48611763565b5b611b5589828a01611a96565b94509450506060611b6889828a016118a9565b9250506080611b7989828a01611789565b9150509295509295509295565b600080600080600080600060e0888a031215611ba557611ba461175e565b5b6000611bb38a828b016118a9565b9750506020611bc48a828b016118a9565b9650506040611bd58a828b01611789565b9550506060611be68a828b01611789565b9450506080611bf78a828b01611789565b93505060a0611c088a828b016118a9565b92505060c0611c198a828b01611789565b91505092959891949750929550565b611c3181611768565b82525050565b6000604082019050611c4c6000830185611c28565b611c596020830184611c28565b9392505050565b611c6981611880565b82525050565b6000602082019050611c846000830184611c60565b92915050565b60008060408385031215611ca157611ca061175e565b5b6000611caf858286016118a9565b9250506020611cc0858286016118a9565b9150509250929050565b6000606082019050611cdf6000830186611c28565b611cec6020830185611c28565b611cf96040830184611c60565b949350505050565b600080600080600080600080610100898b031215611d2257611d2161175e565b5b6000611d308b828c016118a9565b9850506020611d418b828c016118a9565b9750506040611d528b828c01611789565b9650506060611d638b828c01611789565b9550506080611d748b828c01611789565b94505060a0611d858b828c01611789565b93505060c0611d968b828c016118a9565b92505060e0611da78b828c01611789565b9150509295985092959890939650565b6000606082019050611dcc6000830186611c28565b611dd96020830185611c28565b611de66040830184611c28565b949350505050565b600082825260208201905092915050565b7f494e56414c49445f504154480000000000000000000000000000000000000000600082015250565b6000611e35600c83611dee565b9150611e4082611dff565b602082019050919050565b60006020820190508181036000830152611e6481611e28565b9050919050565b7f4e487b7100000000000000000000000000000000000000000000000000000000600052601160045260246000fd5b6000611ea582611768565b9150611eb083611768565b9250828203905081811115611ec857611ec7611e6b565b5b92915050565b7f4e487b7100000000000000000000000000000000000000000000000000000000600052603260045260246000fd5b6000611f0882611768565b915060008203611f1b57611f1a611e6b565b5b600182039050919050565b7f4558504952454400000000000000000000000000000000000000000000000000600082015250565b6000611f5c600783611dee565b9150611f6782611f26565b602082019050919050565b60006020820190508181036000830152611f8b81611f4f565b9050919050565b7f494e53554646494349454e545f4f55545055545f414d4f554e54000000000000600082015250565b6000611fc8601a83611dee565b9150611fd382611f92565b602082019050919050565b60006020820190508181036000830152611ff781611fbb565b9050919050565b6000602082840312156120145761201361175e565b5b6000612022848285016118a9565b91505092915050565b7f4558434553534956455f494e5055545f414d4f554e5400000000000000000000600082015250565b6000612061601683611dee565b915061206c8261202b565b602082019050919050565b6000602082019050818103600083015261209081612054565b9050919050565b6000815190506120a681611772565b92915050565b600080604083850312156120c3576120c261175e565b5b60006120d185828601612097565b92505060206120e285828601612097565b9150509250929050565b7f494e53554646494349454e545f415f414d4f554e540000000000000000000000600082015250565b6000612122601583611dee565b915061212d826120ec565b602082019050919050565b6000602082019050818103600083015261215181612115565b9050919050565b7f494e53554646494349454e545f425f414d4f554e540000000000000000000000600082015250565b600061218e601583611dee565b915061219982612158565b602082019050919050565b600060208201905081810360008301526121bd81612181565b9050919050565b60006121cf82611768565b91506121da83611768565b92508282019050808211156121f2576121f1611e6b565b5b92915050565b6000806000606084860312156122115761221061175e565b5b600061221f86828701612097565b935050602061223086828701612097565b925050604061224186828701612097565b9150509250925092565b60006040820190506122606000830185611c60565b61226d6020830184611c60565b9392505050565b60008151905061228381611892565b92915050565b60006020828403121561229f5761229e61175e565b5b60006122ad84828501612274565b91505092915050565b7f494e53554646494349454e545f746f6b656e425f414d4f554e54000000000000600082015250565b60006122ec601a83611dee565b91506122f7826122b6565b602082019050919050565b6000602082019050818103600083015261231b816122df565b9050919050565b7f4e487b7100000000000000000000000000000000000000000000000000000000600052600160045260246000fd5b7f494e53554646494349454e545f746f6b656e415f414d4f554e54000000000000600082015250565b6000612387601a83611dee565b915061239282612351565b602082019050919050565b600060208201905081810360008301526123b68161237a565b9050919050565b6000602082840312156123d3576123d261175e565b5b60006123e184828501612097565b91505092915050565b7f494e53554646494349454e545f4c495155494449545900000000000000000000600082015250565b6000612420601683611dee565b915061242b826123ea565b602082019050919050565b6000602082019050818103600083015261244f81612413565b9050919050565b600061246182611768565b915061246c83611768565b925082820261247a81611768565b9150828204841483151761249157612490611e6b565b5b5092915050565b7f4e487b7100000000000000000000000000000000000000000000000000000000600052601260045260246000fd5b60006124d282611768565b91506124dd83611768565b9250826124ed576124ec612498565b5b828204905092915050565b60008160601b9050919050565b6000612510826124f8565b9050919050565b600061252282612505565b9050919050565b61253a61253582611880565b612517565b82525050565b600061254c8285612529565b60148201915061255c8284612529565b6014820191508190509392505050565b600081905092915050565b7fff00000000000000000000000000000000000000000000000000000000000000600082015250565b60006125ad60018361256c565b91506125b882612577565b600182019050919050565b6000819050919050565b6000819050919050565b6125e86125e3826125c3565b6125cd565b82525050565b60006125f9826125a0565b91506126058286612529565b60148201915061261582856125d7565b60208201915061262582846125d7565b602082019150819050949350505050565b600060608201905061264b6000830186611c60565b6126586020830185611c60565b6126656040830184611c28565b949350505050565b600081519050919050565b600081905092915050565b60005b838110156126a1578082015181840152602081019050612686565b60008484015250505050565b60006126b88261266d565b6126c28185612678565b93506126d2818560208601612683565b80840191505092915050565b60006126ea82846126ad565b915081905092915050565b60008115159050919050565b61270a816126f5565b811461271557600080fd5b50565b60008151905061272781612701565b92915050565b6000602082840312156127435761274261175e565b5b600061275184828501612718565b91505092915050565b7f5452414e534645525f46524f4d5f4641494c4544000000000000000000000000600082015250565b6000612790601483611dee565b915061279b8261275a565b602082019050919050565b600060208201905081810360008301526127bf81612783565b9050919050565b7f4944454e544943414c5f4144445245535345535f4e4f545f414c4c4f57454400600082015250565b60006127fc601f83611dee565b9150612807826127c6565b602082019050919050565b6000602082019050818103600083015261282b816127ef565b9050919050565b7f5a45524f5f414444524553535f4e4f545f414c4c4f5745440000000000000000600082015250565b6000612868601883611dee565b915061287382612832565b602082019050919050565b600060208201905081810360008301526128978161285b565b9050919050565b7f494e53554646494349454e545f494e5055545f414d4f554e5400000000000000600082015250565b60006128d4601983611dee565b91506128df8261289e565b602082019050919050565b60006020820190508181036000830152612903816128c7565b9050919050565b7f494e53554646494349454e545f414d4f554e5400000000000000000000000000600082015250565b6000612940601383611dee565b915061294b8261290a565b602082019050919050565b6000602082019050818103600083015261296f81612933565b905091905056fea26469706673582212205e4d2da47bc658c82900560e7e5cc8fcd43fd36b98422fdca7a9c0d9dfe81fcd64736f6c63430008180033",
  "linkReferences": {},
  "deployedLinkReferences": {}
}