{
  "_format": "hh-sol-artifact-1",
  "contractName": "PairFactory",
  "sourceName": "src/backend/contracts/PairFactory.sol",
  "abi": [
    {
      "inputs": [],
      "stateMutability": "nonpayable",
      "type": "constructor"
    },
    {
      "anonymous": false,
      "inputs": [
        {
          "indexed": true,
          "internalType": "address",
          "name": "tokenA",
          "type": "address"
        },
        {
          "indexed": true,
          "internalType": "address",
          "name": "tokenB",
          "type": "address"
        },
        {
          "indexed": false,
          "internalType": "address",
          "name": "pair",
          "type": "address"
        },
        {
          "indexed": false,
          "internalType": "uint256",
          "name": "",
          "type": "uint256"
        }
      ],
      "name": "PairCreated",
      "type": "event"
    },
    {
      "inputs": [],
      "name": "INIT_CODE_PAIR_HASH",
      "outputs": [
        {
          "internalType": "bytes32",
          "name": "",
          "type": "bytes32"
        }
      ],
      "stateMutability": "view",
      "type": "function"
    },
    {
      "inputs": [
        {
          "internalType": "uint256",
          "name": "",
          "type": "uint256"
        }
      ],
      "name": "allPairs",
      "outputs": [
        {
          "internalType": "address",
          "name": "",
          "type": "address"
        }
      ],
      "stateMutability": "view",
      "type": "function"
    },
    {
      "inputs": [],
      "name": "allPairsLength",
      "outputs": [
        {
          "internalType": "uint256",
          "name": "",
          "type": "uint256"
        }
      ],
      "stateMutability": "view",
      "type": "function"
    },
    {
      "inputs": [
        {
          "internalType": "address",
          "name": "tokenA",
          "type": "address"
        },
        {
          "internalType": "address",
          "name": "tokenB",
          "type": "address"
        }
      ],
      "name": "createPair",
      "outputs": [
        {
          "internalType": "address",
          "name": "pair",
          "type": "address"
        }
      ],
      "stateMutability": "nonpayable",
      "type": "function"
    },
    {
      "inputs": [
        {
          "internalType": "address",
          "name": "",
          "type": "address"
        },
        {
          "internalType": "address",
          "name": "",
          "type": "address"
        }
      ],
      "name": "getPair",
      "outputs": [
        {
          "internalType": "address",
          "name": "",
          "type": "address"
        }
      ],
      "stateMutability": "view",
      "type": "function"
    },
    {
      "inputs": [],
      "name": "owner",
      "outputs": [
        {
          "internalType": "address",
          "name": "",
          "type": "address"
        }
      ],
      "stateMutability": "view",
      "type": "function"
    },
    {
      "inputs": [
        {
          "internalType": "address",
          "name": "tokenA",
          "type": "address"
        },
        {
          "internalType": "address",
          "name": "tokenB",
          "type": "address"
        }
      ],
      "name": "pairFor",
      "outputs": [
        {
          "internalType": "address",
          "name": "pair",
          "type": "address"
        }
      ],
      "stateMutability": "view",
      "type": "function"
    },
    {
      "inputs": [],
      "name": "rewardTo",
      "outputs": [
        {
          "internalType": "address",
          "name": "",
          "type": "address"
        }
      ],
      "stateMutability": "view",
      "type": "function"
    },
    {
      "inputs": [
        {
          "internalType": "address",
          "name": "_rewardTo",
          "type": "address"
        }
      ],
      "name": "setRewardTo",
      "outputs": [],
      "stateMutability": "nonpayable",
      "type": "function"
    }
  ],
  "bytecode": "0x608060405234801561001057600080fd5b50336000806101000a81548173ffffffffffffffffffffffffffffffffffffffff021916908373ffffffffffffffffffffffffffffffffffffffff16021790555033600360006101000a81548173ffffffffffffffffffffffffffffffffffffffff021916908373ffffffffffffffffffffffffffffffffffffffff160217905550614454806100a16000396000f3fe60806040523480156200001157600080fd5b5060043610620000a05760003560e01c8063812b83e9116200006f578063812b83e914620001415780638da5cb5b146200016157806396ed28f91462000183578063c9c6539614620001b9578063e6a4390514620001ef57620000a0565b80631e3dd18b14620000a55780631fdfdeab14620000db578063574f2ba314620000fd5780635855a25a146200011f575b600080fd5b620000c36004803603810190620000bd919062000ad3565b62000225565b604051620000d2919062000b4a565b60405180910390f35b620000e562000265565b604051620000f4919062000b4a565b60405180910390f35b6200010762000289565b60405162000116919062000b78565b60405180910390f35b6200012962000296565b60405162000138919062000bb0565b60405180910390f35b6200015f600480360381019062000159919062000bfe565b620002e7565b005b6200016b620003bb565b6040516200017a919062000b4a565b60405180910390f35b620001a160048036038101906200019b919062000c30565b620003e5565b604051620001b0919062000b4a565b60405180910390f35b620001d76004803603810190620001d1919062000c30565b6200044a565b604051620001e6919062000b4a565b60405180910390f35b6200020d600480360381019062000207919062000c30565b62000894565b6040516200021c919062000b4a565b60405180910390f35b600281815481106200023657600080fd5b906000526020600020016000915054906101000a900473ffffffffffffffffffffffffffffffffffffffff1681565b60008054906101000a900473ffffffffffffffffffffffffffffffffffffffff1681565b6000600280549050905090565b60405180602001620002a89062000a85565b6020820181038252601f19601f82011660405250604051602001620002ce919062000cf0565b6040516020818303038152906040528051906020012081565b60008054906101000a900473ffffffffffffffffffffffffffffffffffffffff1673ffffffffffffffffffffffffffffffffffffffff163373ffffffffffffffffffffffffffffffffffffffff161462000378576040517f08c379a00000000000000000000000000000000000000000000000000000000081526004016200036f9062000d6a565b60405180910390fd5b806000806101000a81548173ffffffffffffffffffffffffffffffffffffffff021916908373ffffffffffffffffffffffffffffffffffffffff16021790555050565b6000600360009054906101000a900473ffffffffffffffffffffffffffffffffffffffff16905090565b60006200044230848460405180602001620004009062000a85565b6020820181038252601f19601f8201166040525060405160200162000426919062000cf0565b60405160208183030381529060405280519060200120620008d6565b905092915050565b60008060006200045b858562000951565b91509150600073ffffffffffffffffffffffffffffffffffffffff16600160008473ffffffffffffffffffffffffffffffffffffffff1673ffffffffffffffffffffffffffffffffffffffff16815260200190815260200160002060008373ffffffffffffffffffffffffffffffffffffffff1673ffffffffffffffffffffffffffffffffffffffff16815260200190815260200160002060009054906101000a900473ffffffffffffffffffffffffffffffffffffffff1673ffffffffffffffffffffffffffffffffffffffff16146200056d576040517f08c379a0000000000000000000000000000000000000000000000000000000008152600401620005649062000ddc565b60405180910390fd5b600060405180602001620005819062000a85565b6020820181038252601f19601f82011660405250905060008383604051602001620005ae92919062000e4e565b604051602081830303815290604052805190602001209050808251602084016000f594508473ffffffffffffffffffffffffffffffffffffffff1663485cc95585856040518363ffffffff1660e01b81526004016200060f92919062000e7e565b600060405180830381600087803b1580156200062a57600080fd5b505af11580156200063f573d6000803e3d6000fd5b5050505084600160008673ffffffffffffffffffffffffffffffffffffffff1673ffffffffffffffffffffffffffffffffffffffff16815260200190815260200160002060008573ffffffffffffffffffffffffffffffffffffffff1673ffffffffffffffffffffffffffffffffffffffff16815260200190815260200160002060006101000a81548173ffffffffffffffffffffffffffffffffffffffff021916908373ffffffffffffffffffffffffffffffffffffffff16021790555084600160008573ffffffffffffffffffffffffffffffffffffffff1673ffffffffffffffffffffffffffffffffffffffff16815260200190815260200160002060008673ffffffffffffffffffffffffffffffffffffffff1673ffffffffffffffffffffffffffffffffffffffff16815260200190815260200160002060006101000a81548173ffffffffffffffffffffffffffffffffffffffff021916908373ffffffffffffffffffffffffffffffffffffffff1602179055506002859080600181540180825580915050600190039060005260206000200160009091909190916101000a81548173ffffffffffffffffffffffffffffffffffffffff021916908373ffffffffffffffffffffffffffffffffffffffff1602179055508273ffffffffffffffffffffffffffffffffffffffff168473ffffffffffffffffffffffffffffffffffffffff167f0d3648bd0f6ba80134a33ba9275ac585d9d315f0ad8355cddefde31afa28d0e9876002805490506040516200088292919062000eab565b60405180910390a35050505092915050565b60016020528160005260406000206020528060005260406000206000915091509054906101000a900473ffffffffffffffffffffffffffffffffffffffff1681565b6000806000620008e7868662000951565b915091508682826040516020016200090192919062000e4e565b60405160208183030381529060405280519060200120856040516020016200092c9392919062000f58565b6040516020818303038152906040528051906020012060001c92505050949350505050565b6000808273ffffffffffffffffffffffffffffffffffffffff168473ffffffffffffffffffffffffffffffffffffffff1603620009c5576040517f08c379a0000000000000000000000000000000000000000000000000000000008152600401620009bc9062000ff8565b60405180910390fd5b8273ffffffffffffffffffffffffffffffffffffffff168473ffffffffffffffffffffffffffffffffffffffff161062000a0157828462000a04565b83835b8092508193505050600073ffffffffffffffffffffffffffffffffffffffff168273ffffffffffffffffffffffffffffffffffffffff160362000a7e576040517f08c379a000000000000000000000000000000000000000000000000000000000815260040162000a75906200106a565b60405180910390fd5b9250929050565b613392806200108d83390190565b600080fd5b6000819050919050565b62000aad8162000a98565b811462000ab957600080fd5b50565b60008135905062000acd8162000aa2565b92915050565b60006020828403121562000aec5762000aeb62000a93565b5b600062000afc8482850162000abc565b91505092915050565b600073ffffffffffffffffffffffffffffffffffffffff82169050919050565b600062000b328262000b05565b9050919050565b62000b448162000b25565b82525050565b600060208201905062000b61600083018462000b39565b92915050565b62000b728162000a98565b82525050565b600060208201905062000b8f600083018462000b67565b92915050565b6000819050919050565b62000baa8162000b95565b82525050565b600060208201905062000bc7600083018462000b9f565b92915050565b62000bd88162000b25565b811462000be457600080fd5b50565b60008135905062000bf88162000bcd565b92915050565b60006020828403121562000c175762000c1662000a93565b5b600062000c278482850162000be7565b91505092915050565b6000806040838503121562000c4a5762000c4962000a93565b5b600062000c5a8582860162000be7565b925050602062000c6d8582860162000be7565b9150509250929050565b600081519050919050565b600081905092915050565b60005b8381101562000cad57808201518184015260208101905062000c90565b60008484015250505050565b600062000cc68262000c77565b62000cd2818562000c82565b935062000ce481856020860162000c8d565b80840191505092915050565b600062000cfe828462000cb9565b915081905092915050565b600082825260208201905092915050565b7f4e4f545f4f574e45520000000000000000000000000000000000000000000000600082015250565b600062000d5260098362000d09565b915062000d5f8262000d1a565b602082019050919050565b6000602082019050818103600083015262000d858162000d43565b9050919050565b7f504149525f414c52454144595f45584953545300000000000000000000000000600082015250565b600062000dc460138362000d09565b915062000dd18262000d8c565b602082019050919050565b6000602082019050818103600083015262000df78162000db5565b9050919050565b60008160601b9050919050565b600062000e188262000dfe565b9050919050565b600062000e2c8262000e0b565b9050919050565b62000e4862000e428262000b25565b62000e1f565b82525050565b600062000e5c828562000e33565b60148201915062000e6e828462000e33565b6014820191508190509392505050565b600060408201905062000e95600083018562000b39565b62000ea4602083018462000b39565b9392505050565b600060408201905062000ec2600083018562000b39565b62000ed1602083018462000b67565b9392505050565b600081905092915050565b7fff00000000000000000000000000000000000000000000000000000000000000600082015250565b600062000f1b60018362000ed8565b915062000f288262000ee3565b600182019050919050565b6000819050919050565b62000f5262000f4c8262000b95565b62000f33565b82525050565b600062000f658262000f0c565b915062000f73828662000e33565b60148201915062000f85828562000f3d565b60208201915062000f97828462000f3d565b602082019150819050949350505050565b7f4944454e544943414c5f4144445245535345535f4e4f545f414c4c4f57454400600082015250565b600062000fe0601f8362000d09565b915062000fed8262000fa8565b602082019050919050565b60006020820190508181036000830152620010138162000fd1565b9050919050565b7f5a45524f5f414444524553535f4e4f545f414c4c4f5745440000000000000000600082015250565b60006200105260188362000d09565b91506200105f826200101a565b602082019050919050565b60006020820190508181036000830152620010858162001043565b905091905056fe60806040523480156200001157600080fd5b506040518060400160405280600e81526020017f44455820546f6b656e20506169720000000000000000000000000000000000008152506040518060400160405280600681526020017f4445582d5450000000000000000000000000000000000000000000000000000081525081600390816200008f91906200036d565b508060049081620000a191906200036d565b505050600160058190555033600660006101000a81548173ffffffffffffffffffffffffffffffffffffffff021916908373ffffffffffffffffffffffffffffffffffffffff16021790555062000454565b600081519050919050565b7f4e487b7100000000000000000000000000000000000000000000000000000000600052604160045260246000fd5b7f4e487b7100000000000000000000000000000000000000000000000000000000600052602260045260246000fd5b600060028204905060018216806200017557607f821691505b6020821081036200018b576200018a6200012d565b5b50919050565b60008190508160005260206000209050919050565b60006020601f8301049050919050565b600082821b905092915050565b600060088302620001f57fffffffffffffffffffffffffffffffffffffffffffffffffffffffffffffffff82620001b6565b620002018683620001b6565b95508019841693508086168417925050509392505050565b6000819050919050565b6000819050919050565b60006200024e62000248620002428462000219565b62000223565b62000219565b9050919050565b6000819050919050565b6200026a836200022d565b62000282620002798262000255565b848454620001c3565b825550505050565b600090565b620002996200028a565b620002a68184846200025f565b505050565b5b81811015620002ce57620002c26000826200028f565b600181019050620002ac565b5050565b601f8211156200031d57620002e78162000191565b620002f284620001a6565b8101602085101562000302578190505b6200031a6200031185620001a6565b830182620002ab565b50505b505050565b600082821c905092915050565b6000620003426000198460080262000322565b1980831691505092915050565b60006200035d83836200032f565b9150826002028217905092915050565b6200037882620000f3565b67ffffffffffffffff811115620003945762000393620000fe565b5b620003a082546200015c565b620003ad828285620002d2565b600060209050601f831160018114620003e55760008415620003d0578287015190505b620003dc85826200034f565b8655506200044c565b601f198416620003f58662000191565b60005b828110156200041f57848901518255600182019150602085019450602081019050620003f8565b868310156200043f57848901516200043b601f8916826200032f565b8355505b6001600288020188555050505b505050505050565b612f2e80620004646000396000f3fe608060405234801561001057600080fd5b50600436106101375760003560e01c80636d9a640a116100b8578063a9059cbb1161007c578063a9059cbb14610357578063ba9a7a5614610387578063bc25cf77146103a5578063c45a0155146103c1578063dd62ed3e146103df578063fff6cae91461040f57610137565b80636d9a640a1461029e57806370a08231146102ba5780637464fc3d146102ea57806389afcb441461030857806395d89b411461033957610137565b806323b872dd116100ff57806323b872dd146101e6578063313ce56714610216578063485cc955146102345780635f64b55b146102505780636a6278421461026e57610137565b806306fdde031461013c5780630902f1ac1461015a578063095ea7b31461017a5780630fc63d10146101aa57806318160ddd146101c8575b600080fd5b610144610419565b60405161015191906123a5565b60405180910390f35b6101626104ab565b604051610171939291906123e0565b60405180910390f35b610194600480360381019061018f91906124a6565b6104c4565b6040516101a19190612501565b60405180910390f35b6101b26104e7565b6040516101bf919061252b565b60405180910390f35b6101d061050d565b6040516101dd9190612546565b60405180910390f35b61020060048036038101906101fb9190612561565b610517565b60405161020d9190612501565b60405180910390f35b61021e610546565b60405161022b91906125d0565b60405180910390f35b61024e600480360381019061024991906125eb565b61054f565b005b610258610665565b604051610265919061252b565b60405180910390f35b6102886004803603810190610283919061262b565b61068b565b6040516102959190612546565b60405180910390f35b6102b860048036038101906102b39190612658565b610964565b005b6102d460048036038101906102cf919061262b565b610e57565b6040516102e19190612546565b60405180910390f35b6102f2610e9f565b6040516102ff9190612546565b60405180910390f35b610322600480360381019061031d919061262b565b610ea5565b6040516103309291906126ab565b60405180910390f35b61034161128a565b60405161034e91906123a5565b60405180910390f35b610371600480360381019061036c91906124a6565b61131c565b60405161037e9190612501565b60405180910390f35b61038f61133f565b60405161039c9190612546565b60405180910390f35b6103bf60048036038101906103ba919061262b565b611345565b005b6103c96114ca565b6040516103d6919061252b565b60405180910390f35b6103f960048036038101906103f491906125eb565b6114f0565b6040516104069190612546565b60405180910390f35b610417611577565b005b60606003805461042890612703565b80601f016020809104026020016040519081016040528092919081815260200182805461045490612703565b80156104a15780601f10610476576101008083540402835291602001916104a1565b820191906000526020600020905b81548152906001019060200180831161048457829003601f168201915b5050505050905090565b6000806000600a549250600b549150600c549050909192565b6000806104cf6116c9565b90506104dc8185856116d1565b600191505092915050565b600760009054906101000a900473ffffffffffffffffffffffffffffffffffffffff1681565b6000600254905090565b6000806105226116c9565b905061052f8582856116e3565b61053a858585611777565b60019150509392505050565b60006012905090565b600660009054906101000a900473ffffffffffffffffffffffffffffffffffffffff1673ffffffffffffffffffffffffffffffffffffffff163373ffffffffffffffffffffffffffffffffffffffff16146105df576040517f08c379a00000000000000000000000000000000000000000000000000000000081526004016105d690612780565b60405180910390fd5b81600760006101000a81548173ffffffffffffffffffffffffffffffffffffffff021916908373ffffffffffffffffffffffffffffffffffffffff16021790555080600860006101000a81548173ffffffffffffffffffffffffffffffffffffffff021916908373ffffffffffffffffffffffffffffffffffffffff1602179055505050565b600860009054906101000a900473ffffffffffffffffffffffffffffffffffffffff1681565b600061069561186b565b6000806106a06104ab565b50915091506000600760009054906101000a900473ffffffffffffffffffffffffffffffffffffffff1673ffffffffffffffffffffffffffffffffffffffff166370a08231306040518263ffffffff1660e01b8152600401610702919061252b565b602060405180830381865afa15801561071f573d6000803e3d6000fd5b505050506040513d601f19601f8201168201806040525081019061074391906127b5565b90506000600860009054906101000a900473ffffffffffffffffffffffffffffffffffffffff1673ffffffffffffffffffffffffffffffffffffffff166370a08231306040518263ffffffff1660e01b81526004016107a2919061252b565b602060405180830381865afa1580156107bf573d6000803e3d6000fd5b505050506040513d601f19601f820116820180604052508101906107e391906127b5565b9050600084836107f39190612811565b9050600084836108039190612811565b9050600061081187876118b1565b9050600061081d61050d565b90506000810361085d576103e861083e84866108399190612845565b611a38565b6108489190612811565b985061085861dead6103e8611b31565b610896565b61089388828661086d9190612845565b61087791906128b6565b8883866108849190612845565b61088e91906128b6565b611bb3565b98505b600089116108d9576040517f08c379a00000000000000000000000000000000000000000000000000000000081526004016108d090612933565b60405180910390fd5b6108e38a8a611b31565b6108ed8686611bcc565b811561090a57600b54600a546109039190612845565b6009819055505b82843373ffffffffffffffffffffffffffffffffffffffff167f4c209b5fc8ad50758f13e2e1088ba56a560dff690a1c6fef26394f4c03821c4f60405160405180910390a4505050505050505061095f611c22565b919050565b61096c61186b565b600083118061097b5750600082115b6109ba576040517f08c379a00000000000000000000000000000000000000000000000000000000081526004016109b19061299f565b60405180910390fd5b6000806109c56104ab565b509150915081851080156109d857508084105b610a17576040517f08c379a0000000000000000000000000000000000000000000000000000000008152600401610a0e90612a0b565b60405180910390fd5b6000600760009054906101000a900473ffffffffffffffffffffffffffffffffffffffff1690506000600860009054906101000a900473ffffffffffffffffffffffffffffffffffffffff1690508173ffffffffffffffffffffffffffffffffffffffff168573ffffffffffffffffffffffffffffffffffffffff1614158015610acd57508073ffffffffffffffffffffffffffffffffffffffff168573ffffffffffffffffffffffffffffffffffffffff1614155b610b0c576040517f08c379a0000000000000000000000000000000000000000000000000000000008152600401610b0390612a77565b60405180910390fd5b6000871115610b2157610b20828689611c2c565b5b6000861115610b3657610b35818688611c2c565b5b60008273ffffffffffffffffffffffffffffffffffffffff166370a08231306040518263ffffffff1660e01b8152600401610b71919061252b565b602060405180830381865afa158015610b8e573d6000803e3d6000fd5b505050506040513d601f19601f82011682018060405250810190610bb291906127b5565b905060008273ffffffffffffffffffffffffffffffffffffffff166370a08231306040518263ffffffff1660e01b8152600401610bef919061252b565b602060405180830381865afa158015610c0c573d6000803e3d6000fd5b505050506040513d601f19601f82011682018060405250810190610c3091906127b5565b905060008987610c409190612811565b8311610c4d576000610c65565b8987610c599190612811565b83610c649190612811565b5b905060008987610c759190612811565b8311610c82576000610c9a565b8987610c8e9190612811565b83610c999190612811565b5b90506000821180610cab5750600081115b610cea576040517f08c379a0000000000000000000000000000000000000000000000000000000008152600401610ce190612ae3565b60405180910390fd5b6000600283610cf99190612845565b6103e886610d079190612845565b610d119190612811565b90506000600283610d229190612845565b6103e886610d309190612845565b610d3a9190612811565b9050620f4240600b54600a54610d509190612845565b610d5a9190612845565b8183610d669190612845565b1015610da7576040517f08c379a0000000000000000000000000000000000000000000000000000000008152600401610d9e90612b4f565b60405180910390fd5b5050610db38484611bcc565b7f01348bb2f6226387b328cf57e9fd501f8fefe40fd3f64342a5a5c4a1c35c3f616040518060c001604052803373ffffffffffffffffffffffffffffffffffffffff1681526020018481526020018381526020018d81526020018c81526020018b73ffffffffffffffffffffffffffffffffffffffff16815250604051610e3a9190612c08565b60405180910390a15050505050505050610e52611c22565b505050565b60008060008373ffffffffffffffffffffffffffffffffffffffff1673ffffffffffffffffffffffffffffffffffffffff168152602001908152602001600020549050919050565b60095481565b600080610eb061186b565b600080610ebb6104ab565b50915091506000600760009054906101000a900473ffffffffffffffffffffffffffffffffffffffff1690506000600860009054906101000a900473ffffffffffffffffffffffffffffffffffffffff16905060008273ffffffffffffffffffffffffffffffffffffffff166370a08231306040518263ffffffff1660e01b8152600401610f49919061252b565b602060405180830381865afa158015610f66573d6000803e3d6000fd5b505050506040513d601f19601f82011682018060405250810190610f8a91906127b5565b905060008273ffffffffffffffffffffffffffffffffffffffff166370a08231306040518263ffffffff1660e01b8152600401610fc7919061252b565b602060405180830381865afa158015610fe4573d6000803e3d6000fd5b505050506040513d601f19601f8201168201806040525081019061100891906127b5565b9050600061101530610e57565b9050600061102388886118b1565b9050600061102f61050d565b905080858461103e9190612845565b61104891906128b6565b9a508084846110579190612845565b61106191906128b6565b995060008b118015611073575060008a115b6110b2576040517f08c379a00000000000000000000000000000000000000000000000000000000081526004016110a990612c6f565b60405180910390fd5b6110bc3084611db6565b6110c7878d8d611c2c565b6110d2868d8c611c2c565b8673ffffffffffffffffffffffffffffffffffffffff166370a08231306040518263ffffffff1660e01b815260040161110b919061252b565b602060405180830381865afa158015611128573d6000803e3d6000fd5b505050506040513d601f19601f8201168201806040525081019061114c91906127b5565b94508573ffffffffffffffffffffffffffffffffffffffff166370a08231306040518263ffffffff1660e01b8152600401611187919061252b565b602060405180830381865afa1580156111a4573d6000803e3d6000fd5b505050506040513d601f19601f820116820180604052508101906111c891906127b5565b93506111d48585611bcc565b81156111f157600b54600a546111ea9190612845565b6009819055505b7f9978c3157a2cf39a0d06d45d07c7bc87092f73e77cdd8e445f4247c8cd3a477560405180608001604052803373ffffffffffffffffffffffffffffffffffffffff1681526020018d81526020018c81526020018e73ffffffffffffffffffffffffffffffffffffffff1681525060405161126c9190612ce4565b60405180910390a1505050505050505050611285611c22565b915091565b60606004805461129990612703565b80601f01602080910402602001604051908101604052809291908181526020018280546112c590612703565b80156113125780601f106112e757610100808354040283529160200191611312565b820191906000526020600020905b8154815290600101906020018083116112f557829003601f168201915b5050505050905090565b6000806113276116c9565b9050611334818585611777565b600191505092915050565b6103e881565b61134d61186b565b6000600760009054906101000a900473ffffffffffffffffffffffffffffffffffffffff1690506000600860009054906101000a900473ffffffffffffffffffffffffffffffffffffffff16905061142c8284600a548573ffffffffffffffffffffffffffffffffffffffff166370a08231306040518263ffffffff1660e01b81526004016113dc919061252b565b602060405180830381865afa1580156113f9573d6000803e3d6000fd5b505050506040513d601f19601f8201168201806040525081019061141d91906127b5565b6114279190612811565b611c2c565b6114bd8184600b548473ffffffffffffffffffffffffffffffffffffffff166370a08231306040518263ffffffff1660e01b815260040161146d919061252b565b602060405180830381865afa15801561148a573d6000803e3d6000fd5b505050506040513d601f19601f820116820180604052508101906114ae91906127b5565b6114b89190612811565b611c2c565b50506114c7611c22565b50565b600660009054906101000a900473ffffffffffffffffffffffffffffffffffffffff1681565b6000600160008473ffffffffffffffffffffffffffffffffffffffff1673ffffffffffffffffffffffffffffffffffffffff16815260200190815260200160002060008373ffffffffffffffffffffffffffffffffffffffff1673ffffffffffffffffffffffffffffffffffffffff16815260200190815260200160002054905092915050565b61157f61186b565b6116bf600760009054906101000a900473ffffffffffffffffffffffffffffffffffffffff1673ffffffffffffffffffffffffffffffffffffffff166370a08231306040518263ffffffff1660e01b81526004016115dd919061252b565b602060405180830381865afa1580156115fa573d6000803e3d6000fd5b505050506040513d601f19601f8201168201806040525081019061161e91906127b5565b600860009054906101000a900473ffffffffffffffffffffffffffffffffffffffff1673ffffffffffffffffffffffffffffffffffffffff166370a08231306040518263ffffffff1660e01b8152600401611679919061252b565b602060405180830381865afa158015611696573d6000803e3d6000fd5b505050506040513d601f19601f820116820180604052508101906116ba91906127b5565b611bcc565b6116c7611c22565b565b600033905090565b6116de8383836001611e38565b505050565b60006116ef84846114f0565b90507fffffffffffffffffffffffffffffffffffffffffffffffffffffffffffffffff81146117715781811015611761578281836040517ffb8f41b200000000000000000000000000000000000000000000000000000000815260040161175893929190612cff565b60405180910390fd5b61177084848484036000611e38565b5b50505050565b600073ffffffffffffffffffffffffffffffffffffffff168373ffffffffffffffffffffffffffffffffffffffff16036117e95760006040517f96c6fd1e0000000000000000000000000000000000000000000000000000000081526004016117e0919061252b565b60405180910390fd5b600073ffffffffffffffffffffffffffffffffffffffff168273ffffffffffffffffffffffffffffffffffffffff160361185b5760006040517fec442f05000000000000000000000000000000000000000000000000000000008152600401611852919061252b565b60405180910390fd5b61186683838361200f565b505050565b6002600554036118a7576040517f3ee5aeb500000000000000000000000000000000000000000000000000000000815260040160405180910390fd5b6002600581905550565b600080600660009054906101000a900473ffffffffffffffffffffffffffffffffffffffff1673ffffffffffffffffffffffffffffffffffffffff16631fdfdeab6040518163ffffffff1660e01b8152600401602060405180830381865afa158015611921573d6000803e3d6000fd5b505050506040513d601f19601f820116820180604052508101906119459190612d4b565b9050600073ffffffffffffffffffffffffffffffffffffffff168173ffffffffffffffffffffffffffffffffffffffff1614159150600060095490508215611a1e5760008114611a195760006119a585876119a09190612845565b611a38565b905060006119b283611a38565b905080821115611a165760006009836119cb9190612845565b826119d69190612d78565b82846119e29190612811565b6119ea61050d565b6119f49190612845565b6119fe91906128b6565b90506000811115611a1457611a138582611b31565b5b505b50505b611a30565b60008114611a2f5760006009819055505b5b505092915050565b6000808203611a4a5760009050611b2c565b60006001611a5784612234565b901c6001901b90506001818481611a7157611a70612887565b5b048201901c90506001818481611a8a57611a89612887565b5b048201901c90506001818481611aa357611aa2612887565b5b048201901c90506001818481611abc57611abb612887565b5b048201901c90506001818481611ad557611ad4612887565b5b048201901c90506001818481611aee57611aed612887565b5b048201901c90506001818481611b0757611b06612887565b5b048201901c9050611b2881828581611b2257611b21612887565b5b04611bb3565b9150505b919050565b600073ffffffffffffffffffffffffffffffffffffffff168273ffffffffffffffffffffffffffffffffffffffff1603611ba35760006040517fec442f05000000000000000000000000000000000000000000000000000000008152600401611b9a919061252b565b60405180910390fd5b611baf6000838361200f565b5050565b6000818310611bc25781611bc4565b825b905092915050565b81600a8190555080600b8190555042600c819055507fcf2aa50876cdfbb541206f89af0ee78d44a2abf8d328e37fa4917f982149848a600a54600b54604051611c169291906126ab565b60405180910390a15050565b6001600581905550565b6000808473ffffffffffffffffffffffffffffffffffffffff166040518060400160405280601981526020017f7472616e7366657228616464726573732c75696e743235362900000000000000815250805190602001208585604051602401611c96929190612dac565b604051602081830303815290604052907bffffffffffffffffffffffffffffffffffffffffffffffffffffffff19166020820180517bffffffffffffffffffffffffffffffffffffffffffffffffffffffff8381831617835250505050604051611d009190612e1c565b6000604051808303816000865af19150503d8060008114611d3d576040519150601f19603f3d011682016040523d82523d6000602084013e611d42565b606091505b5091509150818015611d705750600081511480611d6f575080806020019051810190611d6e9190612e5f565b5b5b611daf576040517f08c379a0000000000000000000000000000000000000000000000000000000008152600401611da690612ed8565b60405180910390fd5b5050505050565b600073ffffffffffffffffffffffffffffffffffffffff168273ffffffffffffffffffffffffffffffffffffffff1603611e285760006040517f96c6fd1e000000000000000000000000000000000000000000000000000000008152600401611e1f919061252b565b60405180910390fd5b611e348260008361200f565b5050565b600073ffffffffffffffffffffffffffffffffffffffff168473ffffffffffffffffffffffffffffffffffffffff1603611eaa5760006040517fe602df05000000000000000000000000000000000000000000000000000000008152600401611ea1919061252b565b60405180910390fd5b600073ffffffffffffffffffffffffffffffffffffffff168373ffffffffffffffffffffffffffffffffffffffff1603611f1c5760006040517f94280d62000000000000000000000000000000000000000000000000000000008152600401611f13919061252b565b60405180910390fd5b81600160008673ffffffffffffffffffffffffffffffffffffffff1673ffffffffffffffffffffffffffffffffffffffff16815260200190815260200160002060008573ffffffffffffffffffffffffffffffffffffffff1673ffffffffffffffffffffffffffffffffffffffff168152602001908152602001600020819055508015612009578273ffffffffffffffffffffffffffffffffffffffff168473ffffffffffffffffffffffffffffffffffffffff167f8c5be1e5ebec7d5bd14f71427d1e84f3dd0314c0f7b2291e5b200ac8c7c3b925846040516120009190612546565b60405180910390a35b50505050565b600073ffffffffffffffffffffffffffffffffffffffff168373ffffffffffffffffffffffffffffffffffffffff16036120615780600260008282546120559190612d78565b92505081905550612134565b60008060008573ffffffffffffffffffffffffffffffffffffffff1673ffffffffffffffffffffffffffffffffffffffff168152602001908152602001600020549050818110156120ed578381836040517fe450d38c0000000000000000000000000000000000000000000000000000000081526004016120e493929190612cff565b60405180910390fd5b8181036000808673ffffffffffffffffffffffffffffffffffffffff1673ffffffffffffffffffffffffffffffffffffffff16815260200190815260200160002081905550505b600073ffffffffffffffffffffffffffffffffffffffff168273ffffffffffffffffffffffffffffffffffffffff160361217d57806002600082825403925050819055506121ca565b806000808473ffffffffffffffffffffffffffffffffffffffff1673ffffffffffffffffffffffffffffffffffffffff168152602001908152602001600020600082825401925050819055505b8173ffffffffffffffffffffffffffffffffffffffff168373ffffffffffffffffffffffffffffffffffffffff167fddf252ad1be2c89b69c2b068fc378daa952ba7f163c4a11628f55a4df523b3ef836040516122279190612546565b60405180910390a3505050565b600080600090506000608084901c111561225657608083901c92506080810190505b6000604084901c111561227157604083901c92506040810190505b6000602084901c111561228c57602083901c92506020810190505b6000601084901c11156122a757601083901c92506010810190505b6000600884901c11156122c257600883901c92506008810190505b6000600484901c11156122dd57600483901c92506004810190505b6000600284901c11156122f857600283901c92506002810190505b6000600184901c111561230c576001810190505b80915050919050565b600081519050919050565b600082825260208201905092915050565b60005b8381101561234f578082015181840152602081019050612334565b60008484015250505050565b6000601f19601f8301169050919050565b600061237782612315565b6123818185612320565b9350612391818560208601612331565b61239a8161235b565b840191505092915050565b600060208201905081810360008301526123bf818461236c565b905092915050565b6000819050919050565b6123da816123c7565b82525050565b60006060820190506123f560008301866123d1565b61240260208301856123d1565b61240f60408301846123d1565b949350505050565b600080fd5b600073ffffffffffffffffffffffffffffffffffffffff82169050919050565b60006124478261241c565b9050919050565b6124578161243c565b811461246257600080fd5b50565b6000813590506124748161244e565b92915050565b612483816123c7565b811461248e57600080fd5b50565b6000813590506124a08161247a565b92915050565b600080604083850312156124bd576124bc612417565b5b60006124cb85828601612465565b92505060206124dc85828601612491565b9150509250929050565b60008115159050919050565b6124fb816124e6565b82525050565b600060208201905061251660008301846124f2565b92915050565b6125258161243c565b82525050565b6000602082019050612540600083018461251c565b92915050565b600060208201905061255b60008301846123d1565b92915050565b60008060006060848603121561257a57612579612417565b5b600061258886828701612465565b935050602061259986828701612465565b92505060406125aa86828701612491565b9150509250925092565b600060ff82169050919050565b6125ca816125b4565b82525050565b60006020820190506125e560008301846125c1565b92915050565b6000806040838503121561260257612601612417565b5b600061261085828601612465565b925050602061262185828601612465565b9150509250929050565b60006020828403121561264157612640612417565b5b600061264f84828501612465565b91505092915050565b60008060006060848603121561267157612670612417565b5b600061267f86828701612491565b935050602061269086828701612491565b92505060406126a186828701612465565b9150509250925092565b60006040820190506126c060008301856123d1565b6126cd60208301846123d1565b9392505050565b7f4e487b7100000000000000000000000000000000000000000000000000000000600052602260045260246000fd5b6000600282049050600182168061271b57607f821691505b60208210810361272e5761272d6126d4565b5b50919050565b7f4e4f545f464143544f5259000000000000000000000000000000000000000000600082015250565b600061276a600b83612320565b915061277582612734565b602082019050919050565b600060208201905081810360008301526127998161275d565b9050919050565b6000815190506127af8161247a565b92915050565b6000602082840312156127cb576127ca612417565b5b60006127d9848285016127a0565b91505092915050565b7f4e487b7100000000000000000000000000000000000000000000000000000000600052601160045260246000fd5b600061281c826123c7565b9150612827836123c7565b925082820390508181111561283f5761283e6127e2565b5b92915050565b6000612850826123c7565b915061285b836123c7565b9250828202612869816123c7565b915082820484148315176128805761287f6127e2565b5b5092915050565b7f4e487b7100000000000000000000000000000000000000000000000000000000600052601260045260246000fd5b60006128c1826123c7565b91506128cc836123c7565b9250826128dc576128db612887565b5b828204905092915050565b7f494e53554646494349454e545f4c49515549444954595f4d494e544544000000600082015250565b600061291d601d83612320565b9150612928826128e7565b602082019050919050565b6000602082019050818103600083015261294c81612910565b9050919050565b7f494e56414c49445f4f55545055545f414d4f554e540000000000000000000000600082015250565b6000612989601583612320565b915061299482612953565b602082019050919050565b600060208201905081810360008301526129b88161297c565b9050919050565b7f494e53554646494349454e545f52455345525645000000000000000000000000600082015250565b60006129f5601483612320565b9150612a00826129bf565b602082019050919050565b60006020820190508181036000830152612a24816129e8565b9050919050565b7f494e56414c49445f4f55545055545f4144445245535300000000000000000000600082015250565b6000612a61601683612320565b9150612a6c82612a2b565b602082019050919050565b60006020820190508181036000830152612a9081612a54565b9050919050565b7f494e53554646494349454e545f494e5055545f414d4f554e5400000000000000600082015250565b6000612acd601983612320565b9150612ad882612a97565b602082019050919050565b60006020820190508181036000830152612afc81612ac0565b9050919050565b7f494e53554646494349454e545f4c495155494449545900000000000000000000600082015250565b6000612b39601683612320565b9150612b4482612b03565b602082019050919050565b60006020820190508181036000830152612b6881612b2c565b9050919050565b612b788161243c565b82525050565b612b87816123c7565b82525050565b60c082016000820151612ba36000850182612b6f565b506020820151612bb66020850182612b7e565b506040820151612bc96040850182612b7e565b506060820151612bdc6060850182612b7e565b506080820151612bef6080850182612b7e565b5060a0820151612c0260a0850182612b6f565b50505050565b600060c082019050612c1d6000830184612b8d565b92915050565b7f494e53554646494349454e545f4255524e494e475f4c49515549444954590000600082015250565b6000612c59601e83612320565b9150612c6482612c23565b602082019050919050565b60006020820190508181036000830152612c8881612c4c565b9050919050565b608082016000820151612ca56000850182612b6f565b506020820151612cb86020850182612b7e565b506040820151612ccb6040850182612b7e565b506060820151612cde6060850182612b6f565b50505050565b6000608082019050612cf96000830184612c8f565b92915050565b6000606082019050612d14600083018661251c565b612d2160208301856123d1565b612d2e60408301846123d1565b949350505050565b600081519050612d458161244e565b92915050565b600060208284031215612d6157612d60612417565b5b6000612d6f84828501612d36565b91505092915050565b6000612d83826123c7565b9150612d8e836123c7565b9250828201905080821115612da657612da56127e2565b5b92915050565b6000604082019050612dc1600083018561251c565b612dce60208301846123d1565b9392505050565b600081519050919050565b600081905092915050565b6000612df682612dd5565b612e008185612de0565b9350612e10818560208601612331565b80840191505092915050565b6000612e288284612deb565b915081905092915050565b612e3c816124e6565b8114612e4757600080fd5b50565b600081519050612e5981612e33565b92915050565b600060208284031215612e7557612e74612417565b5b6000612e8384828501612e4a565b91505092915050565b7f5452414e534645525f4641494c45440000000000000000000000000000000000600082015250565b6000612ec2600f83612320565b9150612ecd82612e8c565b602082019050919050565b60006020820190508181036000830152612ef181612eb5565b905091905056fea2646970667358221220a1892ba24d8064b930e7c734f86fe708190baf5b267d0c1ad05522da2054040264736f6c63430008180033a264697066735822122068647b3068b5876693c0407d432dfd0ca85e6c6f334e63de60905a7517f400d664736f6c63430008180033",
  "linkReferences": {},
  "deployedLinkReferences": {}
}